:100000000000022099010000D51C0000A11C000086
:10001000A11C0000A11C0000A11C0000A11C0000EC
:10002000A11C0000A11C0000A11C0000D51C0000A8
:10003000D51C0000A11C0000D51C0000911C000074
:10004000D51C0000D51C0000D51C0000D51C0000EC
:10005000D51C0000D51C0000D51C0000D51C0000DC
:10006000D51C0000D51C0000D51C0000D51C0000CC
:10007000D51C0000D51C0000D51C0000D51C0000BC
:10008000D51C0000D51C0000D51C0000D51C0000AC
:10009000D51C0000D51C0000D51C0000D51C00009C
:1000A00099590000A5590000D51C0000D51C00007E
:1000B000D51C0000D51C0000D51C00007D390000B7
:1000C000D51C000059400000D51C00006D45000003
:1000D000D51C0000F94A0000D51C0000D51C00000A
:1000E000D51C0000D51C0000D51C0000D51C00004C
:1000F000D51C0000D51C0000D51C0000D51C00003C
:10010000D51C0000D51C0000D51C0000D51C00002B
:10011000D51C000001220000D51C0000D51C0000E9
:10012000D51C0000D51C0000D51C0000D51C00000B
:10013000D51C0000D51C0000D51C0000D51C0000FB
:10014000D51C0000D51C0000D54F0000D51C0000B8
:10015000AD540000D51C0000D51C0000D51C0000CB
:10016000D51C0000D51C0000B1590000D51C0000B2
:10017000D51C0000D51C0000D51C0000D51C0000BB
:10018000D51C0000D51C0000D51C0000D51C0000AB
:10019000D51C0000D51C0000574B4CF2205210B566
:1001A0001A804DF628121A8000BF00BF01F096FD9C
:1001B000524B4FF030621A60514A9A60514ADA60ED
:1001C000514B4FF470021A60504B1A6812F480724F
:1001D00004D14F490A604FF4A8521A604D4B1A7867
:1001E000110703D51A7842F008021A704A4B2A22E6
:1001F0001A700023494A4A499818884204D249494A
:10020000595899500433F5E7474A484B9A424FF002
:10021000000302D242F8043BF7E74549454A5958E2
:1002200099500433B3F5CC7FF7D1434B802103F8C9
:10023000011B42498B42F9D1414B1A60414B8A2242
:100240001A70A3F5805324225A70A0221A709A794A
:100250009207FCD59A79D406FCD43B4B9A7902F0EC
:100260000C02082AF9D103221A7146225A719A798E
:100270009006FCD5344B9A795106FBD5334A4FF0A2
:10028000827111600921516020221A702E4B9B79D6
:1002900003F00C030C2BF9D12D4B2E4A1A602E4B78
:1002A0002E4A1A6000225A60072243F8042C2C4A76
:1002B000C3F80C2D62B601F071FE154B1B68DA070E
:1002C00005D5284801F076FD274B284A1A60284BAF
:1002D0001B785B0609D5244C244A2368934204D139
:1002E000204801F067FD0023236005F0BDFB01F00D
:1002F000FBFC01F02BFCFEE70E20054030800440A3
:10030000823F04000100002B88ED00E010D0034084
:1003100014D0034002D0074000E007406007FF1FF1
:10032000100BFF1F9C640000100BFF1F6C17FF1FBA
:10033000000000000002FF1F00E400E056E400E0BF
:1003400008ED00E0005006400040064044800440B4
:1003500004800440C010050014E000E0BFD4010098
:1003600000002020F07366591CE00340A5C3945A96
:1003700000F00740FFFFFFFFFFFFFFFFFFFFFFFF52
:10038000FFFFFFFFFFFFFFFFFFFFFFFFFFFFFFFF7D
:10039000FFFFFFFFFFFFFFFFFFFFFFFFFFFFFFFF6D
:1003A000FFFFFFFFFFFFFFFFFFFFFFFFFFFFFFFF5D
:1003B000FFFFFFFFFFFFFFFFFFFFFFFFFFFFFFFF4D
:1003C000FFFFFFFFFFFFFFFFFFFFFFFFFFFFFFFF3D
:1003D000FFFFFFFFFFFFFFFFFFFFFFFFFFFFFFFF2D
:1003E000FFFFFFFFFFFFFFFFFFFFFFFFFFFFFFFF1D
:1003F000FFFFFFFFFFFFFFFFFFFFFFFFFFFFFFFF0D
:10040000FFFFFFFFFFFFFFFFFFFFFFFFDEF9FFFF23
:1004100010B5054C237833B9044B13B10448AFF33E
:1004200000800123237010BD100BFF1F000000008F
:100430009C64000008B5064B1BB106480649AFF3A3
:1004400000800648036813B1054B03B1984708BD07
:10045000000000009C640000140BFF1F100BFF1F26
:100460000000000043680B701A0A4A701A0C1B0E39
:100470008A70CB7083680B711A0A4A711A0C1B0EB2
:100480008A71CB71C3680B721A0A4A721A0C1B0E5E
:100490008A72CB7203690B731A0A4A731A0C1B0E09
:1004A0008A73CB7343690B741A0A4A741A0C1B0EB5
:1004B0008A74CB74142070478B784A781B0443EA03
:1004C00002230A781343CA7843EA026343608B79B4
:1004D0004A791B0443EA02230A791343CA7943EA9F
:1004E000026383608B7A4A7A1B0443EA02230A7A06
:1004F0001343CA7A43EA0263C3608B7B4A7B1B04C3
:1005000043EA02230A7B1343CA7B43EA0263036183
:100510008B7C4A7C1B0443EA02230A7C1343CA7C7B
:1005200043EA0263436114207047FFFF00487047AD
:10053000C85C000000487047E65C0000704738B5B2
:10054000054600F10C042046FFF7B6FF6B6A204613
:10055000984738BD806A704700487047C85C000003
:1005600000487047E65C000010B504462C2001F0FE
:10057000F1FB114A0260114AC2600022026142612D
:100580008261C26102620E4A4262012282620D4AA7
:1005900082600D4A1060002204EB8201D1F87C14C5
:1005A00031B904EB82046432C4F87C04426010BDAB
:1005B0000132192AF0D110BDB85C0000A05C000027
:1005C0003D050000075D00002C0BFF1F03790B7039
:1005D000012070470B780371012070470048704775
:1005E000485D000000487047565D00007047704746
:1005F00008B50B78037443690C30984708BD8069CF
:100600007047FFFF00487047485D00000048704792
:10061000565D0000037910B5074C2BB1074B1B68E2
:1006200098470123237010BD2370054B1B7913B924
:10063000044B1B68984710BD340BFF1F3C08FF1F7D
:100640003C0BFF1F4008FF1FF7B5144A13680093C7
:10065000134B00981968411A312916461D461AD9BC
:10066000104C237983F0010323710F4B1B68D8686A
:100670009968026817682246B84723790BB10B4B7B
:1006800003E00B4B1B7813B90A4B1B689847336880
:100690000193019B2B6003B0F0BD00BFA810FF1FAA
:1006A000380BFF1F3C0BFF1F440BFF1F3C08FF1FB5
:1006B000340BFF1F4008FF1FF7B50446142001F05C
:1006C00049FB2A4F2A4B2B4E0360002546600561EB
:1006D00038601C2001F03EFB274A0260274AC260B6
:1006E000274A426101228261264A8260264A39688D
:1006F0001060034605742A4604EB8200D0F8180403
:1007000038B902F583707D3244F820108A60CC60DD
:1007100002E00132192AEFD1002204EB8201D1F864
:100720007C1431B904EB82046432C4F87C345A601E
:1007300002E00132192AF0D1144B1B680193144BCB
:10074000019A1A601820022101F072FB114904225B
:10075000182001F09FFB182001F05CFBD0F1010094
:1007600038BF0020307103B0F0BD00BF440BFF1F45
:10077000775D00003C0BFF1F385D0000205D00002E
:1007800015060000825D0000300BFF1FA810FF1F40
:10079000380BFF1F49060000014B1860704700BF6F
:1007A0003C08FF1F014B1860704700BF4008FF1F47
:1007B000024B034A1A6000221A7170473C0BFF1F5C
:1007C000205D0000014804F097BF00BFE015FF1F47
:1007D00038B50A4C0125236884F85E50490084F836
:1007E0003B1084F85D501B68204611469847204610
:1007F0002946BDE8384005F04DB800BFE015FF1FA1
:1008000043680B7043681B0A4B70C3888B70C379B5
:10081000CB7083680B7183681B0A4B7143898B71A2
:10082000C37ACB71082070470B7843604A7843EA5B
:10083000022343608A7843EA02434360CA7843EA6A
:10084000026343600B7983604A7943EA0223836041
:100850008A7943EA02438360CA7943EA0263836088
:100860000820704700487047085E00000048704745
:10087000165E000000487047375E00000048704771
:10088000505E000000487047715E000000487047ED
:10089000845E000000487047FF5E0000004870471B
:1008A000A55E0000014B00221A7070474408FF1F2C
:1008B000014B03221A7070474408FF1F90F8F4049C
:1008C00070472DE9FF4183880B7083881B0A4B70AA
:1008D000054680680C4605F0A7F904AB064643F8C8
:1008E0000C0D1868C4F80200A9683246A01D01F07A
:1008F00035F9E86805F098F904AB06F1060843F805
:10090000080D0746186844F808000A36E9683A46B0
:10091000A01901F023F9286905F086F904AB3E44DB
:1009200043F8040D07461868A0510436A0193A464A
:10093000296901F013F9F0196B69235404441A0A68
:10094000627004301A0C1B0EA270E37004B0BDE894
:10095000F0817FB50A7882800346487842EA002217
:100960009A80D1F80200019001988A1D841D551AC1
:10097000A54204D212F8015B02F8025CF7E70844D2
:10098000002242714A1D9A6008590290201D029C63
:1009900002460444A24205D28D188E5C05F8016C13
:1009A0000132F7E70A1901380844002502F8015C12
:1009B000D860106803900398043420442246824291
:1009C00005D28D188E5C05F8016C0132F7E70A1824
:1009D000013C0C44002502F8015C1C6195785478B8
:1009E000D2782D0445EA04250C5C45EA040141EA6D
:1009F000026204305A6104B070BD73B503790B70A4
:100A0000054680680E4605F00FF902AB044643F830
:100A1000040D1868C6F80100A968701D224601F08F
:100A20009DF8601D02B070BD37B50B46024613F845
:100A3000010B107118680190019C4B1D601D5D1A1F
:100A4000854204D213F8015B03F8025CF7E70C441B
:100A5000002304312371916003B030BD2DE9F743C9
:100A600003790B70002305460C464B708B70CB70DE
:100A70000A1D28795E1CDBB29842C4EB020102F128
:100A800004020FD9E96851F8233002F8043C190A2E
:100A900002F8031C190C1B0E02F8013C02F8021CA0
:100AA0003346E6E72B7C6354631800225A709A7031
:100AB000DA700B1D2344297C501CD2B29142C4EB46
:100AC000030603F104030FD9A96951F8222003F8A2
:100AD000042C110A03F8031C110C120E03F8012C4C
:100AE00003F8021C0246E6E72B7FA355A219002358
:100AF000537093700436D3702A7F5FFA83F84245AF
:100B000003F1010915D96B6A53F8280005F08CF838
:100B100002AB074643F8040D1868A0516B6A04360F
:100B2000A01953F828103A4601F018F83E444B46F5
:100B3000E2E7304603B0BDE8F083F7B50E780379FD
:100B4000B34204460D4604D2C068B10005F052F825
:100B5000E06026712A1D00212379481CC9B28B420E
:100B6000C5EB020702F1040214D912F8023C12F894
:100B7000036C1B0443EA062312F8046C334312F897
:100B8000016C43EA0663A360E368A66843F821604A
:100B90000146E1E7EE5D237CB34204D2A069B100D7
:100BA00005F028F8A0613B1D26742B440022217C0F
:100BB000501CD2B29142C5EB030703F1040314D9D0
:100BC00013F8021C13F8036C090441EA062113F818
:100BD000046C314313F8016C41EA06616161A1695B
:100BE000666941F822600246E1E7EE5D237FB34289
:100BF00004D2606AB10004F0FDFF60623B1D2677FD
:100C00000022217FD6B2B1421CD9E8580190019947
:100C1000181D014403468B4206D2EF1815F803C095
:100C200007F801CC0133F6E76B180027013803F809
:100C3000017C284420620B46616A206A41F8260044
:100C40000132DEE7184603B0F0BDFFFF63292DE94E
:100C5000FF4104460D4603DD90F8F464002E50D0A9
:100C6000136810461B6804F21F219847FF2283B2C5
:100C700084F81822FE22C0B284F819221A0A84F8D5
:100C80001B220244D24384F81D5245F3072584F801
:100C90001C2284F81A0284F81E5205220021981D95
:100CA000904205DBA018013290F818020144F6E7E3
:100CB00003F108070733BFB214FA83F3C943B7F54A
:100CC000007F83F818120DD804F506783E460025FB
:100CD000BD4216DA606818F8051003681B6898476B
:100CE0000135F5E7094B019303238DF80830084BD4
:100CF0000393236820461B68072101AA98474FF0F9
:100D0000FF36304604B0BDE8F08100BFC85D00008A
:100D1000C65E000010B50368017A1C7843681A7833
:100D2000437A1A40837A0C4203F0030318BF43F05E
:100D300004030AB143F008039A10013B82720D2BA1
:100D400014D8DFE803F0070A0D0A13100707101381
:100D50000A0D0A07C368013307E0C368013B04E0DA
:100D6000C368023301E0C368023BC36010BDFFFFEC
:100D700008B5034BD3F8EC00FFF7CCFF08BD00BF6C
:100D80004C16FF1F08B5034BD3F8E800FFF7C2FF6E
:100D900008BD00BF4C16FF1F08B5034BD3F8E40095
:100DA000FFF7B8FF08BD00BF4C16FF1F08B5034B87
:100DB000D3F8E000FFF7AEFF08BD00BF4C16FF1FE1
:100DC00008B5034BD3F8DC00FFF7A4FF08BD00BF54
:100DD0004C16FF1F08B5034BD3F8D800FFF79AFF56
:100DE00008BD00BF4C16FF1F08B5034BD3F8D40055
:100DF000FFF790FF08BD00BF4C16FF1F08B5034B5F
:100E0000D3F8D000FFF786FF08BD00BF4C16FF1FC8
:100E100008B5034BD3F8CC00FFF77CFF08BD00BF3B
:100E20004C16FF1F08B5034BD3F8C800FFF772FF3D
:100E300008BD00BF4C16FF1F08B5034BD3F8C40014
:100E4000FFF768FF08BD00BF4C16FF1F08B5034B36
:100E5000D3F8C000FFF75EFF08BD00BF4C16FF1FB0
:100E600008B5034BD3F8BC00FFF754FF08BD00BF23
:100E70004C16FF1F08B5034BD3F8B800FFF74AFF25
:100E800008BD00BF4C16FF1F08B5034BD3F8B400D4
:100E9000FFF740FF08BD00BF4C16FF1F08B5034B0E
:100EA000D3F8B000FFF736FF08BD00BF4C16FF1F98
:100EB00008B5034BD3F8AC00FFF72CFF08BD00BF0B
:100EC0004C16FF1F08B5034BD3F8A800FFF722FF0D
:100ED00008BD00BF4C16FF1F08B5034BD3F8A40094
:100EE000FFF718FF08BD00BF4C16FF1F08B5034BE6
:100EF000D3F8A000FFF70EFF08BD00BF4C16FF1F80
:100F000008B5034BD3F89C00FFF704FF08BD00BFF2
:100F10004C16FF1F08B5034BD3F89800FFF7FAFEF5
:100F200008BD00BF4C16FF1F08B5034BD3F8940053
:100F3000FFF7F0FE08BD00BF4C16FF1F08B5034BBE
:100F4000D3F89000FFF7E6FE08BD00BF4C16FF1F68
:100F500008B5034BD3F88C00FFF7DCFE08BD00BFDB
:100F60004C16FF1F08B5034BD3F88800FFF7D2FEDD
:100F700008BD00BF4C16FF1F08B5034BD3F8840013
:100F8000FFF7C8FE08BD00BF4C16FF1F08B5034B96
:100F9000D3F88000FFF7BEFE08BD00BF4C16FF1F50
:100FA00008B5024BD86FFFF7B5FE08BD4C16FF1F02
:100FB00008B5024B986FFFF7ADFE08BD4C16FF1F3A
:100FC00008B5024B586FFFF7A5FE08BD4C16FF1F72
:100FD00008B5024B186FFFF79DFE08BD4C16FF1FAA
:100FE00008B5024BD86EFFF795FE08BD4C16FF1FE3
:100FF00008B5024B986EFFF78DFE08BD4C16FF1F1B
:1010000008B5024B586EFFF785FE08BD4C16FF1F52
:1010100008B5024B186EFFF77DFE08BD4C16FF1F8A
:1010200008B5024BD86DFFF775FE08BD4C16FF1FC3
:1010300008B5024B986DFFF76DFE08BD4C16FF1FFB
:1010400008B5024B586DFFF765FE08BD4C16FF1F33
:1010500008B5024B186DFFF75DFE08BD4C16FF1F6B
:1010600008B5024BD86CFFF755FE08BD4C16FF1FA4
:1010700008B5024B986CFFF74DFE08BD4C16FF1FDC
:1010800008B5024B586CFFF745FE08BD4C16FF1F14
:1010900008B5024B186CFFF73DFE08BD4C16FF1F4C
:1010A00008B5024BD86BFFF735FE08BD4C16FF1F85
:1010B00008B5024B986BFFF72DFE08BD4C16FF1FBD
:1010C00008B5024B586BFFF725FE08BD4C16FF1FF5
:1010D00008B5024B186BFFF71DFE08BD4C16FF1F2D
:1010E00008B5024BD86AFFF715FE08BD4C16FF1F66
:1010F00008B5024B986AFFF70DFE08BD4C16FF1F9E
:1011000008B5024B586AFFF705FE08BD4C16FF1FD5
:1011100008B5024B186AFFF7FDFD08BD4C16FF1F0E
:1011200008B5024BD869FFF7F5FD08BD4C16FF1F47
:1011300008B5024B9869FFF7EDFD08BD4C16FF1F7F
:1011400008B5024B5869FFF7E5FD08BD4C16FF1FB7
:1011500008B5024B1869FFF7DDFD08BD4C16FF1FEF
:1011600008B5024BD868FFF7D5FD08BD4C16FF1F28
:1011700008B5024B9868FFF7CDFD08BD4C16FF1F60
:1011800008B5024B5868FFF7C5FD08BD4C16FF1F98
:1011900008B5024B1868FFF7BDFD08BD4C16FF1FD0
:1011A00008B53B2800F2FE81DFE810F03C0041006A
:1011B00046004B00500056005B00600065006A006E
:1011C0006F00740079007E00830088008D0092001B
:1011D00097009C00A100A600AB00B000B500BA00CB
:1011E000BF00C400C900CE00D300D800DD00E3007A
:1011F000E900EF00F500FB00010107010D011301FB
:1012000019011F0125012B01310137013D01430166
:1012100049014F0155015B0161016701E001E601F0
:10122000EC01F601984B002019609849AFE1964B0C
:10123000012059609649AAE1934B02209960954993
:10124000A5E1914B0320D9609349A0E18E4B042086
:101250001961024691499BE18B4B052059619049E8
:1012600095E1894B062099618E4990E1864B0720D4
:10127000D9618D498BE1844B082019628B4986E145
:10128000814B092059628A4981E17F4B0A2099628A
:1012900088497CE17C4B0B20D962874977E17A4B06
:1012A0000C201963854972E1774B0D2059638449FD
:1012B0006DE1754B0E209963824968E1724B0F20F6
:1012C000D963814963E1704B102019647F495EE165
:1012D0006D4B112059647E4959E16B4B1220996482
:1012E0007C4954E1684B1320D9647B494FE1664B3C
:1012F0001420196579494AE1634B152059657849ED
:1013000045E1614B16209965764940E15E4B172017
:10131000D96575493BE15C4B18201966734936E184
:10132000594B19205966724931E1574B1A20996679
:1013300070492CE1544B1B20D9666F4927E1524B71
:101340001C2019676D4922E14F4B1D2059676C49DC
:101350001DE14D4B1E2099676A4918E14A4B1F2039
:10136000D967694913E1484B2020C3F880106749C9
:101370000DE1454B2120C3F88410654907E1424B3C
:101380002220C3F88810634901E13F4B2320C3F8B2
:101390008C106149FBE03C4B2420C3F890105F495E
:1013A000F5E0394B2520C3F894105D49EFE0364B4A
:1013B0002620C3F898105B49E9E0334B2720C3F897
:1013C0009C105949E3E0304B2820C3F8A01057493E
:1013D000DDE02D4B2920C3F8A4105549D7E02A4B56
:1013E0002A20C3F8A8105349D1E0274B2B20C3F87B
:1013F000AC105149CBE0244B2C20C3F8B0104F491E
:10140000C5E0214B2D20C3F8B4104D49BFE01E4B61
:101410002E20C3F8B8104B49B9E01B4B2F20C3F85E
:10142000BC104949B3E0184B3020C3F8C0104749FD
:10143000ADE0154B3120C3F8C4104549A7E0124B6D
:101440003220C3F8C8104349A1E00F4B3320C3F842
:10145000CC1041499BE00C4B3420C3F8D0103F49DD
:1014600095E0094B3520C3F8D4103D498FE0064B79
:101470003620C3F8D8103B4989E0034B3720C3F826
:10148000DC10394983E000BF4C16FF1F91110000AA
:101490008111000071110000611100005111000064
:1014A0004111000031110000211100001111000054
:1014B00001110000F1100000E1100000D110000047
:1014C000C1100000B1100000A11000009110000038
:1014D0008110000071100000611000005110000028
:1014E0004110000031100000211000001110000018
:1014F00001100000F10F0000E10F0000D10F00000B
:10150000C10F0000B10F0000A10F00008D0F0000FF
:10151000790F0000650F0000510F00003D0F000023
:10152000290F0000150F0000010F0000ED0E000054
:10153000D90E0000C50E0000B10E00009D0E000087
:10154000890E0000750E0000610E00004D0E0000B7
:10155000390E0000250E0000110E0000FD0D0000E8
:10156000E90D0000D50D0000C10D00000E4B382024
:10157000C3F8E0100D490AE00B4B3920C3F8E41022
:101580000B4904E0084BC3F8E8100A493A2004224A
:1015900000F080FC012008BD034B3B20C3F8EC1099
:1015A0000549F4E7002008BD4C16FF1FAD0D0000F3
:1015B000990D0000850D0000710D000070B5044606
:1015C00015460E460846022100F032FC284602214C
:1015D00000F02EFC164A52F8363003F500712160F7
:1015E0000121217252F83520617202F5007000214C
:1015F000E16060600F4901397FF4FDAF93F800327C
:1016000092F8002203F00103D20744BF43F0020323
:10161000DBB2A37221463046FFF7C2FD214620749B
:101620002846FFF7BDFD237C18442074204670BD7A
:101630001C5F0000803801001B4B4FF4E13210B5F5
:101640009A601A4A10681A49097839B31949097811
:10165000890723D0184914680968611A18291DD907
:1016600000221148C3F8E024C3F8E424C3F8EC24B2
:10167000C3F8E824FFF720F81048FFF78DF810486A
:10168000FFF790F80848FEF76FFF0E48FFF79AF84B
:101690000D200121BDE8104000F0CABB1168091AF5
:1016A000B1F57A7FCFD9DBE7480BFF1FA810FF1FEA
:1016B0008B11FF1FB011FF1F6417FF1FA50800004B
:1016C000B10800007810FF1F1FB5094B01930023DC
:1016D0000293039303680A211B6801AA04469847F2
:1016E000044B1B680093009BE36004B010BD00BF77
:1016F000985D0000A810FF1FF0B587B02C4B009339
:1017000000222C4BADF8042004460293039304936B
:10171000059200F164060546D5F81834DBB1586827
:101720009A68ADF804201A68036802929B6898478B
:10173000D5F81834039058680368DB6898474FF46D
:10174000007322680593D5F8183404901768196956
:1017500020466A46B8470435B542DDD12546D5F85E
:101760007C04E0B14368ADF80430836802930368F9
:101770009B6898470390D5F87C040368DB6898471A
:101780004FF4007304900593D5F87C0423681F6818
:1017900003685B6898476A4601462046B8470435A7
:1017A000B542DCD1012384F8F43407B0F0BD00BFAA
:1017B000B05D0000FE5E0000F0B587B01C4D1D4B13
:1017C00003930023049305932B680093009EC36842
:1017D000044603A8F61AFFF727F84FF47A73049F1C
:1017E0000599B6FBF3F2174403FB1266124A0497FD
:1017F00002FB06162968019101980596B0FBF3F1EA
:1018000003FB11036FEA010E0C4902FB131277442C
:1018100016442761666104F1100004F1140104F01C
:101820000FF92B680293029BC4F8FC3407B0F0BD9B
:10183000A810FF1F985D000040420F0000CA9A3BAD
:1018400073B5794E33680093009DD0F8FC3442F6AE
:10185000F822EB1A934284BF002380F8F434D0F8C6
:10186000E034044633B1D0F800359D4202D900235C
:10187000C4F8E03460680368DB6898470028C0F269
:10188000C180D4F8F024D4F8E0340244072BC4F823
:10189000F0240CD1D4F8EC345A1C2344C4F8EC24C2
:1018A0001876D4F8E434013BC4F8E4345EE0A3B91C
:1018B000FF2807D10123C4F8E03405F11403C4F86C
:1018C0000035D7E732680192019A521B052AD1D917
:1018D00084F8F4346FF00100A4E0012B0ED1FE284F
:1018E00001D10223C4E70023C4F8E03494F8F434AF
:1018F000002BBFD12046FFF7E7FEBBE7022B06D146
:101900000023C4F8EC34C4F8E40403231CE0032BE4
:1019100007D1D4F8E43403EB0020C4F8E404042332
:10192000A6E7042B0BD1414B1340002B03DA013BFC
:1019300063F0FF030133FF2B99D1052398E7052BB3
:1019400007D1C4F8E8040623C4F8E034C4F8F0046E
:1019500090E7062B0ED1D4F8E83403EB00200723E0
:10196000C4F8E034D4F8E434C4F8E804002B81D19E
:1019700008237DE7082B7FF47DAF0023C4F8E03413
:101980002A4B1340002B03DA013B63F0FF030133C2
:10199000FF2B7FF46FAFD4F8E83463B92046FFF72C
:1019A00093FE2046FFF7A8FEC4F8F854C4F8FC5490
:1019B0004FF0FF3036E00A2B05D1204604F1180124
:1019C000FFF7FAFE56E7062B09D104F5A16004F1F2
:1019D0001801FFF7B2F8012384F804354AE70B2B0E
:1019E00003D1002384F8F43444E704EB8303D3F8F1
:1019F000EC0200283FF43EAF036804F118011B68B5
:101A0000984737E794F8F40460B1D4F8F83440F616
:101A1000C412EB1A934204D92046FFF755FEC4F8CE
:101A2000F854002002B070BDA810FF1FFF00008016
:101A300073B5134C23783BB1124B93F8F4340BB1CC
:101A4000052300E0042323700F4E104D33680093EC
:101A5000009A2B68D31A632B10D9012122780C48E5
:101A6000FEF7B6FE022122780948FEF7B1FE0548CE
:101A7000FFF7E6FE33680193019B2B6002B070BD57
:101A80004408FF1F480BFF1FA810FF1FA410FF1FD3
:101A90007810FF1F254B07B5254A1A60254A5A6062
:101AA0004FF461429A602449C3F80815002283F874
:101AB000F42483F80C25C3F8142583F81825C3F8FB
:101AC000202583F82425C3F82C25981804320021FA
:101AD000642AC0F81814F8D10A4698180432002174
:101AE000642AC0F87C14F8D1581801310022B1F5ED
:101AF000007F0276F8D1991801320020B2F5007FFC
:101B000081F81802F7D10B210C220C48FFF756FD83
:101B100009210A220A48FFF751FD0A4B1B6801936D
:101B2000019A094B1A6003B05DF804FB480BFF1FD4
:101B3000F85D00009011FF1FE05D00009010FF1F96
:101B40007C10FF1FA810FF1FA410FF1F08B5FFF790
:101B500073FDFFF76DFF01F027F8FAE7844641EACD
:101B6000000313F003036DD1403A41D351F8043B15
:101B700040F8043B51F8043B40F8043B51F8043B67
:101B800040F8043B51F8043B40F8043B51F8043B57
:101B900040F8043B51F8043B40F8043B51F8043B47
:101BA00040F8043B51F8043B40F8043B51F8043B37
:101BB00040F8043B51F8043B40F8043B51F8043B27
:101BC00040F8043B51F8043B40F8043B51F8043B17
:101BD00040F8043B51F8043B40F8043B51F8043B07
:101BE00040F8043B51F8043B40F8043B403ABDD276
:101BF000303211D351F8043B40F8043B51F8043B18
:101C000040F8043B51F8043B40F8043B51F8043BD6
:101C100040F8043B103AEDD20C3205D351F8043BA6
:101C200040F8043B043AF9D2043208D0D2071CBF72
:101C300011F8013B00F8013B01D30B88038060469B
:101C4000704700BF082A13D38B078DD010F0030311
:101C50008AD0C3F10403D21ADB071CBF11F8013B81
:101C600000F8013B80D331F8023B20F8023B7BE7D0
:101C7000043AD9D3013A11F8013B00F8013BF9D2FB
:101C80000B7803704B7843708B7883706046704795
:101C9000024B1A6801321A60704700BFA810FF1F7C
:101CA00008B50B4C2368580301D500F0A9FA236846
:101CB000590501D501F062FE23681A0501D502F02D
:101CC000CBF92368DB04ECD502F050FCE9E700BF58
:101CD0003480044008B5FFF7E3FFFFFF014B1022FB
:101CE0001A807047002005407047FFFF094A08B579
:101CF000136868B169461844A1F50051884206D3BB
:101D000003F0ACFE0C2303604FF0FF3008BD106001
:101D1000184608BD4808FF1FEFF313839BB9EFF384
:101D2000108098B9EFF3058323B10F2B04D9084A2B
:101D3000985C01E04FF48070EFF311833BB1834274
:101D400038BF184670474FF0FF307047184670474D
:101D5000F0E300E003F0AEBE7047FFFF00F140404B
:101D6000A0F592237C2B14D9A0F594237C2B12D9B7
:101D7000A0F596237C2B10D9A0F598237C2B06D9AF
:101D8000A0F59A207D28064828BF00207047054806
:101D9000704705487047054870470548704700BFC1
:101DA0009409FF1F5409FF1F4C08FF1FC408FF1FA1
:101DB0002409FF1F044B054900221A600A60044AE7
:101DC000106010221A60704714D0034004D0034002
:101DD00000D003403F2810B518D80D4A52F83030D3
:101DE00093F880423CB1012211B183F8802010BDEC
:101DF00083F8002110BD02EBC00043681A6811B1DE
:101E000042F0030201E022F002021A6010BD00BF9E
:101E10001C5F00003F2806D8044B53F8303093F87D
:101E20000002C0B270470020704700BF1C5F000076
:101E30003F2810B52BD8164A02EBC00301295B6876
:101E4000144601D004290FD154F83020012082F823
:101E500080024FF4A2721A601A6804290CBF42F083
:101E6000200222F0200211E052F83000002280F817
:101E7000802211B94FF4807208E0022902D140F2A9
:101E8000031203E0032908BF4FF481721A6010BDEA
:101E90001C5F00003F2870B50D463CD8042A3AD894
:101EA000DFE802F00709050B03000B2306E00A2315
:101EB00004E0082302E00C2300E009231E04164B73
:101EC00003EBC0035C68216811F4E06101D1FFF706
:101ED000AFFF124B124AC3F82C21124AC3F830212B
:101EE000114AC3F83421114AC3F838212046104A58
:101EF000C3F83C21FFF732FF68B172B6226822F4C2
:101F000070222260C4F3840342F08072164340F8CA
:101F10002350266062B670BD1C5F00000002FF1FE8
:101F20001108FF1FE507FF1FB907FF1F8D07FF1FE0
:101F30006107FF1F72B60B4B0B491A680B4B1B68EE
:101F4000096862B6490102D5322A88BF0133C2F559
:101F5000EA327821BF32B2FBF1F24FF47A7000FB23
:101F60000320704718E000E004ED00E0A810FF1F18
:101F700038B50446FFF7DEFF054624B938BD013CFD
:101F80000AD005F57A75FFF7D5FF401BB0F57A7FCB
:101F9000F5D200F009FEF6E738BDFFFF2B4B4FF0FE
:101FA000006270B51A604FF080521A604FF0005214
:101FB0001A604FF080421A604FF000421A60244BC2
:101FC000244A254D254C264E4EF6FF710020186000
:101FD00059602823136093601361936113629362C5
:101FE00013639363103202F501222B6023601360A8
:101FF000936013619361136293620922326006F564
:102000008056043630607160B360336146F8042C4A
:1020100006F5FE2630607160B360336146F8042C2B
:1020200006F5805630600F4801602B6023600E4B30
:102030001A6001F023F93220FFF79AFF00F0DEFB6F
:102040004FF4AF70BDE87040FFF792BF04E100E0CD
:10205000048003400C8003400C900B4014900B4014
:102060000080034008900B4000900B40F0B50C4BF3
:102070000C4C1A7842F0020504EBC50682F001020E
:10208000706009481A700678002E0CBF8827C82790
:1020900086F0010647EA0141067044F83510F0BDAC
:1020A0001411FF1F0000FF1F8C11FF1F431E032B85
:1020B00010B510D872B6094A52F8230048B14168E9
:1020C00042F82310064A018832F81340611A22F8B8
:1020D000131062B610BD002010BD00BF0411FF1F19
:1020E0005417FF1F013803280AD872B6054B53F85E
:1020F0002030002013B101305B68FBE762B6704707
:10210000002070475811FF1F10B572B60123174AFF
:102110001A4412F8012C12071CD59900144A52F8DF
:1021200031402CB902EB431308305860114B09E0E1
:1021300041F0010152F8314064B902EBC1030830AB
:1021400058600D4B42F831300C4B1A78013A1A7036
:1021500062B610BD0133052BD9D162B6074B002200
:102160001A70BDE8104000F0CDBB00BF88630000CE
:102170000000FF1F88004000C80040008211FF1FC0
:10218000431E032B30B532D8194A400140F01000ED
:10219000104472B6174CE25C032A09D8DFE802F05B
:1021A000160218050830022213E00830042210E05D
:1021B0001148124A50F8234014B940F8231002E0A5
:1021C00052F82300416042F823100FE0032200E0A0
:1021D0000522E25410F0080F01F108030A88436059
:1021E0000CBF8823C82343EA0243036062B630BDB4
:1021F0000000FF1FC010FF1F5811FF1F6811FF1FB5
:102200002DE9F84FAB4F3C78E4B214F0040F3D4693
:1022100019D0A94B1B78A3B1A84A117801F0FF038C
:1022200021B1013BDBB2137003B900BEA44A11789F
:1022300001F0FF0329B1013BDBB213700BB900F0D1
:102240008FFC04233B7004F0080303F0FF02002B13
:1022500000F067829B4B9C4C1A78D2B215094FEA6A
:10226000920840F0E48104EBC803596854F8383010
:10227000C3F38303013B0C2B00F2D681DFE813F09C
:1022800095019501D401D401D401D401D401D40124
:10229000B001D401D401D4010D008C4D0A684B6803
:1022A0008B486B6001218B4B44F838302A60DFF893
:1022B0005082017092B240F2816000238242C8F8DD
:1022C00000302361A36117D8B2F5D06F80F01E8172
:1022D000B2F5817F00F0CF8006D8802A00F0BA8066
:1022E000822A00F0BB8031E140F202339A4200F0D2
:1022F000D180B2F5A06F1CE042F22100824200F0D2
:1023000051810ED8B2F5086F00F09E80B2F5106FC3
:1023100040F01C81684B6C4EAA781A7006F1800957
:102320000AE042F221218A4200F0088142F2213380
:102330009A4200F00F8109E1336A1B0603D5706AE7
:10234000083800F0DFFA08364E45F5D10026B146D0
:10235000DFF8B0A156F80A0028B1D0F804B000F0B8
:10236000D1FA5846F8E74AF806005B4BDFF898A127
:10237000F05056F80A0028B1D0F804B000F0C2FAC4
:102380005846F8E7554B4AF80600F050544B23F8EE
:102390001900544B19F80320023A032A08D8DFE841
:1023A00002F002040204002200E0012203F80920E6
:1023B00009F10109B9F1040F06F10406C8D14A4B2D
:1023C00000221A7001269A46484A494B3244334447
:1023D00012F8012C9B0012F0080F1A704FEA8609C0
:1023E00025D000F071FA38B104EB4613083058607C
:1023F000404B44F8393006E09AF8003044F8390090
:1024000001338AF8003000F05FFA49F0010338B177
:1024100004EBC302083050602E4A44F8332006E033
:1024200044F833009AF8003001338AF8003049F05C
:102430000202013649F003090023052E44F8323028
:1024400044F83930C0D186E01B4B2B4C1B782370ED
:102450000B4683E0284C237063707EE0AA88042A30
:1024600074D8254C920023706370244B9B5C9E07AC
:1024700073D5217071E0AA8802F07F02042A65DC1E
:102480006B88002B62D191001C4A0A44117821F01C
:10249000020159E0AA8802F07F02042A56DC6B8808
:1024A000002B53D19100154A0A44117841F00201E2
:1024B0004AE000BF802007408B11FF1F1511FF1F4E
:1024C000A011FF1F902007400000FF1F7811FF1F81
:1024D0008C11FF1FC8004000B010FF1F6811FF1FC4
:1024E0005417FF1FC010FF1F8211FF1F88630000D9
:1024F00030C80110880040008311FF1FC020074032
:10250000AC10FF1F0411FF1F5811FF1F6A88A98814
:102510009F4B53F8084CA3F10C00BCB133F80C6C82
:10252000964209D133F80A6C8E4205D1120A032A69
:102530000CBF2378038911E00C33EAE7954A116850
:10254000954A1160A978954A117004E0944B0F22C6
:102550001A7027E000231C4600E00223EE88B342F5
:1025600038BF1E46402E34BF3546402520462946FA
:10257000FFF77CFD761B2C4403D1402D12D135464C
:1025800003E0402E34BF3546402520462946FFF75C
:102590006DFD761B2C4401D1402D03D1814AC8F832
:1025A000004016800122804B3DE0804B1A8842F2A9
:1025B00021039A4210D100237D4AC85C985401330C
:1025C000072BF9D11368862B02D17A4B0F221A7090
:1025D00000200146FFF74AFD774B44F8383023E0EE
:1025E000764E3568B5B1DFF8BC81B8F80090B9F126
:1025F000400F34BF4C46402428462146FFF736FDA5
:10260000C4EB09039BB2A8F800300BB9402C00D1F1
:102610002B193360654B1A88B2F5A06F04D10022E4
:102620005A709A78664B1A7001225F4B6CE004EB8B
:10263000C806013D736802F00802A3F10800EDB27C
:1026400002F0FF01002A36D000F05CF95D485E4BD5
:1026500050F82520EAB1516840F8251002F1080130
:102660007160595D03290BD8DFE801F00204060808
:10267000032104E0022102E0052100E00421595574
:1026800016F0080F12880CBF8823C82343EA0243C0
:1026900042E05A5D032A07D8DFE802F04040020416
:1026A000002206E0012204E016F0080F0CBF02220F
:1026B00003225A5532E054F83820120C23F8082C23
:1026C00022B3DFF834E123F8061C43F8041C5EF85B
:1026D00025303E4913B94EF8250002E051F8253067
:1026E00058603B4B41F8250033F815100A4423F895
:1026F000152000F0E9F810B10830706006E0354BA5
:1027000044F838001A7801321A7007E02A4B324A2E
:1027100016F0080F08BF134644F8383008233B7002
:1027200070E5E0071FD520492B482C4C02230B7085
:102730002B4B1A702B4B186098602B48D8601A618D
:102740009A615C60164B0D2018702848FF230370B7
:102750002B700274264A1370264B9F221A70012395
:102760000B70BDE8F88F210604D50D4B0D221A70B1
:1027700080232B70A20705D51C4B1A78D2B21A7091
:1027800002232B70E30644BF10232B70BDE8F88FA3
:1027900098630000A810FF1F6417FF1FB011FF1FF0
:1027A000C02007408011FF1F942007407811FF1FB1
:1027B0005C17FF1F1511FF1FC8004000AC10FF1F62
:1027C000982007405811FF1FC010FF1FB010FF1FB7
:1027D0005417FF1F8211FF1F88004000C410FF1F05
:1027E0001411FF1F0000FF1F1811FF1F8820074052
:1027F0008C200740842007400411FF1F08B502F019
:10280000BDFE00221B4B0021D15098180832882AA7
:102810004160F7D1184A106840F480201060174AD0
:10282000106840F04070106002F5C9229C32C3F37A
:1028300007201070C3F307401B0E10751376FF239B
:1028400002F81C3C02F8143C02F88C3C012302F80C
:10285000083C82F8641002F8183C094B70226FF4AF
:102860004C711A700B444FF400121A60054B102281
:102870001A7008BD0000FF1F3480044000D80040DB
:1028800035E400E00821074000F0A0B800F05CB893
:1028900000F080B800F036B900F0A6B8084600F0A5
:1028A00025B90846114600F0B7B87047044B00221E
:1028B0001A714FF47A711A73024A99601A6070475C
:1028C0009011FF1F2861000072B60C4A1168B1FA1E
:1028D00081F30B2B02D962B6002070474FF0004005
:1028E000D84021EA0001116062B6054948225343ED
:1028F000C8180022CA504260704700BF000AFF1F7C
:102900000004FF1F0C4B4822C31AB3FBF2F30B2B3E
:1029100011D80A4A127822B1094A12780AB1FFF78F
:10292000F3BB72B6074A4FF0004121FA03F3116876
:102930001943116062B670470004FF1F8211FF1F28
:102940008B11FF1F000AFF1F10B5104C23686BB1DD
:1029500020684288531C0244147A0288934212D39E
:10296000FFF7D0FF094B00221A600DE0084B1B78DF
:1029700013B94FF0FF3010BD0320FFF797FB206025
:102980000028E5D1F5E74380204610BDAC11FF1FBC
:102990008B11FF1F10B50B4C236813B123686BB963
:1029A00002E0094B1B7813B94FF0FF3010BD032034
:1029B000FFF77CFB20600028F0D1F5E75A8813442C
:1029C000187A10BDAC11FF1F8B11FF1F044B9888A4
:1029D000044B1B681BB11A885B88D31A18447047D4
:1029E0005417FF1FAC11FF1F10B5094B1B786BB1BB
:1029F000084C206818B1FFF785FF002323600320EF
:102A0000FFF754FB10B1FFF77DFFF8E710BD00BFE3
:102A10008B11FF1FAC11FF1F2DE9F0472E4E012334
:102A20000746894633700C46002C50D02B4D2B683E
:102A3000AA462BBB4DF2E908294B1B7803F0FF0295
:102A40000BB9327015E00420FFF74CFB072808D8BB
:102A500001233370FFF738FFCAF8000080B91E4B1E
:102A60001870B8F101081F4B01D01A782AB1012261
:102A70001A704FF0FF30BDE8F08700F095F8DBE703
:102A8000184B00221A702B685888C0F140018C4204
:102A900038BF214600F1080C08449C445880641A51
:102AA0008A4204D0B85C0CF802000132F8E71744FF
:102AB0005A883F2A07D940221A8019460420FFF776
:102AC0005FFB00232B60084B05221A70ACE73470C3
:102AD0004846BDE8F08700BFA111FF1FA411FF1FEA
:102AE0008B11FF1FA811FF1FA011FF1F07B502AB1D
:102AF000012103F8010D1846FFF78EFF03B05DF8C2
:102B000004FBFFFF2DE9F041114B1B78F3B1114E8F
:102B1000114B3468114D01271F7098464CB10027A6
:102B200063882F70042023802146FFF729FB37603C
:102B300009E0FFF7C9FE014620B104202C70FFF721
:102B40001FFB00E02F70002388F80030BDE8F08103
:102B50008B11FF1FA411FF1FA111FF1FA011FF1F49
:102B600038B50E4B1B7803F0FF05ABB90C4C216850
:102B700031B14B880B800420FFF702FB256038BD84
:102B8000FFF7A2FE014620B10420BDE83840FFF760
:102B9000F7BA044B01221A7038BD00BFA111FF1F04
:102BA000A411FF1FA011FF1F10B5154C237833BBD4
:102BB00001232370FFF70AFF08B1FFF776FE00F04C
:102BC00067FE08B100F098F801F0D0F908B100F004
:102BD0001DF901F067FC08B100F0A2F901F028FF2F
:102BE00008B100F027FA02F091F908B100F0ACFA50
:102BF00002F0F8FB08B100F031FB0023237010BD98
:102C0000B111FF1F08B50368C9B21B68984708BD1A
:102C100008B50368C9B21B68984708BD08B50368C2
:102C2000C9B21B68984708BD08B50368C9B21B68DC
:102C3000984708BD034800EB5100B0FBF1F000F0ED
:102C400079BB00BF001C4E0E10B5064800EB5100CA
:102C50001446B0FBF1F000F06DFB2046BDE81040DB
:102C600000F0DCBB001C4E0E00F00EBC084600F06D
:102C700071BC084600F0CCBC0846114600F086BC8A
:102C800008B5084600F0F8FC003018BF012008BD68
:102C900008B5084600F012FD003018BF012008BD3D
:102CA00000F0F6BD00F02EBE00F002BE00F0D4BD74
:102CB00000F040BE00F0DABD08B5084600F024FD83
:102CC000012008BD08B5084600F01EFD012008BD22
:102CD00010B508461446114600F060FD204610BDB0
:102CE00038B508460D4602F09FFF044621462846A7
:102CF00000F054FD204638BD7047FFFF044B002212
:102D00001A714FF47A711A73024A99601A60704707
:102D1000B411FF1F5061000008B50368C9B21B68F9
:102D2000984708BD08B50368C9B21B68984708BD35
:102D300008B50368C9B21B68984708BD08B50368A1
:102D4000C9B21B68984708BD034800EB5100B0FBAF
:102D5000F1F000F097BE00BF001C4E0E10B5064803
:102D600000EB51001446B0FBF1F000F08BFE204662
:102D7000BDE8104000F0EABE001C4E0E00F01CBF83
:102D8000084600F06DBF084600F0BCBF084611467B
:102D900000F082BF08B5084600F0DCFF003018BF25
:102DA000012008BD08B5084600F0F6FF003018BF46
:102DB000012008BD01F0DAB801F012B901F0E6B85F
:102DC00001F0B8B801F024B901F0BEB808B5084662
:102DD00001F008F8012008BD08B5084601F002F826
:102DE000012008BD10B508461446114601F044F80C
:102DF000204610BD38B508460D4602F015FF0446C2
:102E00002146284601F038F8204638BD7047FFFFBC
:102E1000044B00221A714FF47A711A73024A9960B6
:102E20001A607047C411FF1FB061000008B5036845
:102E3000C9B21B68984708BD08B50368C9B21B68CA
:102E4000984708BD08B50368C9B21B68984708BD14
:102E500008B50368C9B21B68984708BD034800EB72
:102E60005100B0FBF1F001F07BB900BF000E270765
:102E700010B5064800EB51001446B0FBF1F001F02C
:102E80006FF92046BDE8104001F0AAB9000E2707EF
:102E900001F0DCB9084601F00DBA084601F04EBA5F
:102EA0000846114601F022BA08B5084601F048FA72
:102EB000003018BF012008BD08B5084601F062FACD
:102EC000003018BF012008BD01F0ECBA01F024BBAE
:102ED00001F0F8BA01F0CABA01F036BB01F0D0BA7D
:102EE00008B5084601F06CFA012008BD08B508468F
:102EF00001F066FA012008BD10B5084614461146D7
:102F000001F0A8FA204610BD38B508460D4602F07B
:102F10008BFE04462146284601F09CFA204638BD27
:102F20007047FFFF044B00221A714FF47A711A7335
:102F3000024A99601A607047D411FF1F10620000A6
:102F400008B50368C9B21B68984708BD08B503688F
:102F5000C9B21B68984708BD08B50368C9B21B68A9
:102F6000984708BD08B50368C9B21B68984708BDF3
:102F7000034800EB5100B0FBF1F001F05FBB00BF74
:102F8000000E270710B5064800EB51001446B0FBB1
:102F9000F1F001F053FB2046BDE8104001F0AEBB5C
:102FA000000E270701F0E0BB084601F031BC0846DF
:102FB00001F080BC0846114601F046BC08B5084641
:102FC00001F0A0FC003018BF012008BD08B508467C
:102FD00001F0BAFC003018BF012008BD01F028BD87
:102FE00001F060BD01F034BD01F006BD01F072BD1D
:102FF00001F00CBD08B5084601F0A8FC012008BD91
:1030000008B5084601F0A2FC012008BD10B508462D
:103010001446114601F0E4FC204610BD38B50846C0
:103020000D4602F001FE04462146284601F0D8FC78
:10303000204638BD7047FFFF044B00221A714FF441
:103040007A711A73024A99601A607047E411FF1F7F
:103050007062000008B50368C9B21B68984708BDD4
:1030600008B50368C9B21B68984708BD08B503686E
:10307000C9B21B68984708BD08B50368C9B21B6888
:10308000984708BD034800EB5100B0FBF1F001F098
:103090009BBD00BF000E270710B5064800EB51008E
:1030A0001446B0FBF1F001F08FFD2046BDE8104062
:1030B00001F0CABD000E270701F0FCBD084601F073
:1030C0002DBE084601F06EBE0846114601F042BE14
:1030D00008B5084601F068FE003018BF012008BDA1
:1030E00008B5084601F082FE003018BF012008BD77
:1030F00001F00CBF01F044BF01F018BF01F0EABEBF
:1031000001F056BF01F0F0BE08B5084601F08CFE94
:10311000012008BD08B5084601F086FE012008BD63
:1031200010B508461446114601F0C8FE204610BDF1
:1031300038B508460D4602F077FD0446214628467C
:1031400001F0BCFE204638BD7047FFFF044B002253
:103150001A714FF47A711A73024A99601A607047B3
:10316000F411FF1FD062000008B50368C9B21B68E4
:10317000984708BD08B50368C9B21B68984708BDE1
:1031800008B50368C9B21B68984708BD08B503684D
:10319000C9B21B68984708BD034800EB5100B0FB5B
:1031A000F1F001F07FBF00BF000E270710B5064801
:1031B00000EB51001446B0FBF1F001F073FF204624
:1031C000BDE8104001F0AEBF000E270701F0E0BFE0
:1031D000084602F00FB8084602F050B808461146FB
:1031E00002F024B808B5084602F04AF8003018BFCB
:1031F000012008BD08B5084602F064F8003018BF89
:10320000012008BD02F0EEB802F026B902F0FAB8CB
:1032100002F0CCB802F038B902F0D2B808B50846CE
:1032200002F06EF8012008BD08B5084602F068F803
:10323000012008BD10B508461446114602F0AAF850
:10324000204610BD38B508460D4602F0EDFC044698
:103250002146284602F09EF8204638BD7047FFFF01
:10326000044B00221A714FF47A711A73024A996062
:103270001A6070470412FF1F3063000010B5204B26
:103280002048214960221A70E1225A701F4B204ABF
:103290001C78204B082C01D1212402E00A2C03D1F8
:1032A00039240460132005E00C2C0CBF35245D2468
:1032B00004601220086014601860174B17491B78CF
:1032C000174A03B101230B601360164B164A197895
:1032D000164B012901D880210BE0042901D8842153
:1032E00007E0082901D8852103E0102994BF862131
:1032F0008721116019600E4B01221A7010BD00BFAA
:103300000040074008B003400CB00340040AFF1F10
:1033100008B00B400CB00B401512FF1F20B003404B
:1033200020B00B40050AFF1F24B0034024B00B401F
:103330001412FF1F294B1A6842F480621A60284A4F
:1033400000231370274A1370274A1370274A1370FB
:10335000274A1370274B1B78152B06D01B2B08D040
:103360005BB940F21332244B06E040F21332234B98
:1033700002E0234B40F213321A60224B1B78052BDC
:1033800007D01A2B09D0012B0BD14FF451721E4BD1
:1033900006E04FF451721D4B02E01D4B4FF4517289
:1033A0001A601C4BC0F344321A70C0F347125A70B3
:1033B00000F01F000422022198729A70D9745A7585
:1033C00088221A743C22DA70134B40221A70A3F23E
:1033D0001F334FF000421A60704700BF3480044032
:1033E0009F12FF1F1D12FF1FA812FF1FA012FF1F19
:1033F0001C12FF1F5E12FF1F40A0044018C00440B3
:103400003C900440060AFF1F44A004401CC0044036
:103410003890044000A006401FE400E0194A937869
:1034200000F0030103F0EC030B43410748BF43F0F6
:103430001003937000F00F03042B124903D18B7912
:1034400043F040038B7152790E4B02F0EF02C1063C
:1034500048BF42F010025A719A7910F0200F02F022
:10346000EF02194618BF42F010028A71C205054BDF
:1034700006D55A781978D2B241F0200119705A70E5
:10348000704700BF00A0064008B5234B1B685B05D2
:1034900000D408BD214B1B7803F0FF0213B1FFF7E6
:1034A00083FBF7E71E4B4FF0004119601D4BDA70AC
:1034B0001D4B1B78152B06D01B2B08D05BB940F297
:1034C00003121A4B06E040F20312194B02E0194BAB
:1034D00040F203121A60184B1B7803F07F03052B90
:1034E00007D01A2B09D0012B0BD140F20312134B3A
:1034F00006E040F20312124B02E0124B40F20312BC
:103500001A60114A00231370104A1370104B1B6885
:103510000BB101221A7008BD348004401C12FF1F39
:1035200080E100E000A006405E12FF1F40A00440C2
:1035300018C004403C900440060AFF1F44A0044009
:103540001CC00440389004409F12FF1F1D12FF1F33
:103550001812FF1F38B50446094B1B7803F0FF050E
:10356000002BF9D120460121FEF762FC20462946B6
:10357000FEF730FC034B53F83420034B1A6038BD80
:103580001C12FF1F1C5F0000A412FF1F10B509B121
:1035900040F08000194A1378984214462DD0184AFA
:1035A0001268520528D503F07F03052B06D01A2B8D
:1035B00007D0012B08D10022124B04E00022124B4D
:1035C00001E0124B00221A60002900F07F020CBFBC
:1035D00044236023052A07D01A2A09D0012A0BD1D7
:1035E00043F44073074A06E043F44073064A02E09E
:1035F000064A43F440731360207010BD060AFF1F93
:103600003480044044A004401CC00440389004406E
:10361000144A1378984223D01349096849051ED5E6
:10362000152B05D01B2B06D043B910490B6005E0C4
:1036300000210F4B01E00F4B00211960152806D027
:103640001B2808D058B940F21331084B06E040F26D
:103650001331074B02E0074B40F213311960107031
:10366000704700BF5E12FF1F3480044040A004403A
:1036700018C004403C9004400D4A38B5146814F456
:1036800080624FF0000410D03F280A4D0AD80A4A41
:10369000012152F830302B60FEF7CAFB2B681C70FA
:1036A000012038BD2C60204638BD104638BD00BF13
:1036B000348004401812FF1F1C5F00000E4B1B6873
:1036C00013F4806316D012280C4B03D140F2023160
:1036D0000B4A04E0142809D10A4A40F20231116071
:1036E0005A7B42F001025A73012070475A7B02F064
:1036F000FE025A73002070473480044000A0064048
:103700000CA0044014C00440F8B51D4B1B685A05BA
:10371000064633D51B4B1B680BB101221A701A4B9E
:103720001C780134402C1F4628BF0024174D2B78ED
:10373000A34218D1FEF7F0FA40280FDC144A13799F
:103740001B06F3D52B7813490133402B28BF0023E8
:10375000C95CDBB2C9B2D1712B70E7E7FF28E5DDA8
:10376000FFF722FAE2E70B4BF6B21E550A4B012295
:103770001A70074BE4B2BC223C70DA70F8BD00BF8F
:1037800034800440A412FF1FA812FF1FA012FF1FC5
:1037900000A006401E12FF1F1C12FF1F274B1B68B4
:1037A0005A052DE9F04707468A4644D5244B1B6845
:1037B0000BB101221A703D4607EB0A039D4237D236
:1037C000DFF890801F4E98F8004096F80090013482
:1037D000402C28BF00245FFA89F9A1451DD11A4B5E
:1037E000BC22DA70FEF798FA40280FDC164A1379EB
:1037F0001B060FD5337815490133402B28BF002312
:10380000C95CDBB2C9B2D171337003E0FF2801DDBE
:10381000FFF7CAF933784B45E4D00C4B15F8012B70
:103820001A550B4B0122E4B21A7088F80040C3E726
:10383000054BBC22DA70BDE8F08700BF348004403D
:10384000A412FF1FA012FF1F00A006401E12FF1FA0
:103850001C12FF1FA812FF1F08B5034B1B7813B1E2
:10386000FFF7A2F9F9E708BD1C12FF1F064A074B34
:103870001B781078DBB2C0B283422CBF3F3000F11E
:10388000FF30C01A704700BFA012FF1FA812FF1F11
:10389000054B1878054B1B78C0B2DBB2984238BF95
:1038A0004030C01A704700BF9F12FF1F1D12FF1F3C
:1038B00010B5104B10491A780B78D2B2DBB29A428D
:1038C00014D00133402B28BF00230C48DCB2C05C6D
:1038D0000C700B490968C0B251B19A4238BF4032EE
:1038E000D31A1A2B04DC00230B7010BD4FF0FF30ED
:1038F00010BD00BF9F12FF1F1D12FF1F5F12FF1F91
:103900001812FF1F084B1A78084B1B78DBB29A423B
:1039100007D00133402B28BF0023054AD05CC0B23A
:1039200070474FF0FF3070479F12FF1F1D12FF1F9F
:103930005F12FF1F0C4B1B685B0514D50B4BDA782D
:1039400002F0CB02DA7040225A74DA7842F0340284
:10395000DA70074B1A78074BD2B21A70064B1B6805
:103960000BB100221A7070473480044000A006405A
:103970001D12FF1F9F12FF1F1812FF1F30B5374B7C
:103980001A7912F0300F31D072B69A7D02F0FF0032
:1039900022B9DA7940225A7462B627E062B6304A18
:1039A000304913780978DBB2C9B214462B4AD5796D
:1039B0005A1C402A28BF00228A42EDB202D02A4B6C
:1039C0009D541346421E12F0FF00EFD1DAB222706E
:1039D000264A126852B18B4236BFC1F14001C1EB99
:1039E00003035B18272BC4BF012313701B4BD9782B
:1039F000C9B20C0620D51B7918061DD51C4B1D4AD3
:103A00001D781378EDB2DBB21046AB420CD0134AEE
:103A10000133402B1479184C28BF0023E45CE4B236
:103A2000D471127D072AF0D9DBB203700B4B1A79DF
:103A3000120644BF7C22DA704B060ED5074B1A796A
:103A400012F0400F194608D00C4B00221A700C4B94
:103A50001B6803B11A703C23CB7030BD00A0064038
:103A60009F12FF1F1D12FF1F5F12FF1F1812FF1F63
:103A7000A812FF1FA012FF1F1E12FF1F1C12FF1F04
:103A8000A412FF1F234B1A6842F400621A60224AF4
:103A900000231370214A1370214A1370214A1370B6
:103AA000214A1370214B1B78092B05D03B2B07D1E2
:103AB00040F213321E4B02E01E4B40F213321A60EA
:103AC0001D4B1B780A2B05D03A2B07D14FF45172AE
:103AD0001A4B02E01A4B4FF451721A60194BC0F3A3
:103AE00044321A70C0F347125A700421022200F0C7
:103AF0001F0098729970DA745975882119743C21E5
:103B0000D970114B402119706FF447710B441A6042
:103B1000704700BF348004401A13FF1FB112FF1F0B
:103B20002013FF1F1B13FF1FB012FF1F070AFF1FE9
:103B300004D004400CB00440080AFF1F00D0044029
:103B400010B0044000B0064021E400E0194A937828
:103B500000F0030103F0EC030B43410748BF43F0BF
:103B60001003937000F00F03042B124903D18B79DB
:103B700043F040038B7152790E4B02F0EF02C10605
:103B800048BF42F010025A719A7910F0200F02F0EB
:103B9000EF02194618BF42F010028A71C205054BA8
:103BA00006D55A781978D2B241F0200119705A70AE
:103BB000704700BF00B0064008B51C4B1B681B05D2
:103BC00000D408BD1A4B1A7802F0FF0312B1FEF7B9
:103BD000EBFFF7E7174A02211160174AD370174A23
:103BE0001278092A04D03B2A06D1154A136003E053
:103BF000144B40F203121A60134B1B7803F07F033F
:103C00000A2B04D03A2B06D10022104B02E0104BB5
:103C100040F203121A600F4A002313700E4A137009
:103C20000E4B1B680BB101221A7008BD3480044092
:103C3000B012FF1F84E100E000B00640070AFF1F3A
:103C400004D004400CB00440080AFF1F00D0044018
:103C500010B004401A13FF1FB112FF1FAC12FF1F58
:103C600038B50446094B1B7803F0FF05002BF9D14A
:103C700020460121FEF7DCF820462946FEF7AAF887
:103C8000034B53F83420034B1A6038BDB012FF1FAA
:103C90001C5F00001C13FF1F10B509B140F080002D
:103CA000144A13789842144622D0134A1268120517
:103CB0001DD503F07F030A2B04D03A2B05D1002237
:103CC0000E4B01E00E4B00221A60002900F07F022B
:103CD0000CBF442360230A2A05D03A2A07D143F4B3
:103CE0004073064A02E0064A43F4407313602070B2
:103CF00010BD00BF080AFF1F3480044000D00440FC
:103D000010B004400F4A137898421AD00E4909683F
:103D1000090515D5092B04D03B2B05D100210B4BF0
:103D200001E00B4B00211960092805D03B2807D181
:103D300040F21331054B02E0054B40F2133119609C
:103D400010707047070AFF1F3480044004D00440FD
:103D50000CB004400D4A38B5146814F400624FF0FA
:103D6000000410D03F280A4D0AD80A4A012152F80F
:103D700030302B60FEF75CF82B681C70012038BDDA
:103D80002C60204638BD104638BD00BF348004404A
:103D9000AC12FF1F1C5F00000E4B1B6813F4006386
:103DA00016D017280C4B03D140F202310B4A04E025
:103DB0003C2809D10A4A40F2023111605A7B42F094
:103DC00001025A73012070475A7B02F0FE025A73B7
:103DD000002070473480044000B0064008B0044022
:103DE00008D00440F8B51D4B1B681A05064633D5AC
:103DF0001B4B1B680BB101221A701A4B1C78013443
:103E0000282C1F4628BF0024174D2B78A34218D119
:103E1000FDF782FF40280FDC144A13791B06F3D507
:103E20002B7813490133282B28BF0023C95CDBB250
:103E3000C9B2D1712B70E7E7FF28E5DDFEF7B4FECC
:103E4000E2E70B4BF6B21E550A4B01221A70074BE4
:103E5000E4B2BC223C70DA70F8BD00BF348004408C
:103E60001C13FF1F2013FF1F1B13FF1F00B0064072
:103E7000B212FF1FB012FF1F274B1B681A052DE956
:103E8000F04707468A4644D5244B1B680BB10122F4
:103E90001A703D4607EB0A039D4237D2DFF8908047
:103EA0001F4E98F8004096F800900134282C28BF47
:103EB00000245FFA89F9A1451DD11A4BBC22DA70A2
:103EC000FDF72AFF40280FDC164A13791B060FD591
:103ED000337815490133282B28BF0023C95CDBB296
:103EE000C9B2D171337003E0FF2801DDFEF75CFE3B
:103EF00033784B45E4D00C4B15F8012B1A550B4B7E
:103F00000122E4B21A7088F80040C3E7054BBC22D6
:103F1000DA70BDE8F08700BF348004401C13FF1F37
:103F20001B13FF1F00B00640B212FF1FB012FF1F8D
:103F30002013FF1F08B5034B1B7813B1FEF734FEA7
:103F4000F9E708BDB012FF1F064A074B1B7810782F
:103F5000DBB2C0B283422CBF273000F1FF30C01A61
:103F6000704700BF1B13FF1F2013FF1F054B18785E
:103F7000054B1B78C0B2DBB2984238BF4030C01A44
:103F8000704700BF1A13FF1FB112FF1F10B5104B6F
:103F900010491A780B78D2B2DBB29A4214D00133AE
:103FA000402B28BF00230C48DCB2C05C0C700B49CE
:103FB0000968C0B251B19A4238BF4032D31A1A2BA5
:103FC00004DC00230B7010BD4FF0FF3010BD00BFAC
:103FD0001A13FF1FB112FF1FDA12FF1FAC12FF1FCF
:103FE000084B1A78084B1B78DBB29A4207D0013392
:103FF000402B28BF0023054AD05CC0B270474FF069
:10400000FF3070471A13FF1FB112FF1FDA12FF1F94
:104010000C4B1B681B0514D50B4BDA7802F0CB0256
:10402000DA7040225A74DA7842F03402DA70074BC0
:104030001A78074BD2B21A70064B1B680BB10022DC
:104040001A7070473480044000B00640B112FF1F60
:104050001A13FF1FAC12FF1F30B5374B1A7912F03D
:10406000300F31D072B69A7D02F0FF0022B9DA79B2
:1040700040225A7462B627E062B6304A304913785B
:104080000978DBB2C9B214462B4AD5795A1C402AAA
:1040900028BF00228A42EDB202D02A4B9D5413461B
:1040A000421E12F0FF00EFD1DAB22270264A1268E7
:1040B00052B18B4236BFC1F14001C1EB03035B1823
:1040C000272BC4BF012313701B4BD978C9B20C0630
:1040D00020D51B7918061DD51C4B1D4A1D78137859
:1040E000EDB2DBB21046AB420CD0134A0133282BA1
:1040F0001479184C28BF0023E45CE4B2D471127D1B
:10410000072AF0D9DBB203700B4B1A79120644BFB1
:104110007C22DA704B060ED5074B1A7912F0400F4D
:10412000194608D00C4B00221A700C4B1B6803B1C7
:104130001A703C23CB7030BD00B006401A13FF1F2D
:10414000B112FF1FDA12FF1FAC12FF1F2013FF1F57
:104150001B13FF1FB212FF1FB012FF1F1C13FF1F04
:10416000164B1A6842F480521A60154A00231370E5
:10417000144A1370144A1370144A1370144A1370BB
:10418000144A40F2133111604FF451715160124AD8
:10419000C0F344311170C0F3471100F01F0051709B
:1041A0009072937013742C23D3700C4B40221A70AE
:1041B000A3F21F3308221A60704700BF3480044006
:1041C0009213FF1F2913FF1F9813FF1F9313FF1F45
:1041D0002813FF1F08C0044000C0064023E400E08D
:1041E000194A937800F0030103F0EC030B434107F5
:1041F00048BF43F01003937000F00F03042B1249E3
:1042000003D18B7943F040038B7152790E4B02F04E
:10421000EF02C10648BF42F010025A719A7910F0BD
:10422000200F02F0EF02194618BF42F010028A7107
:10423000C205054B06D55A781978D2B241F0200153
:1042400019705A70704700BF00C0064008B5124B85
:104250001B68DB0400D408BD104B1A7802F0FF0382
:1042600012B1FEF7A1FCF7E70D4A082111600D4AD3
:1042700001F1804101F59821D37040F203120A60E8
:104280004A60094A1370094A1370094B1B680BB145
:1042900001221A7008BD00BF348004402813FF1F9C
:1042A00084E100E000C006409213FF1F2913FF1FA6
:1042B0002413FF1F38B50446094B1B7803F0FF0594
:1042C000002BF9D120460121FDF7B2FD20462946F9
:1042D000FDF780FD034B53F83420034B1A6038BDC3
:1042E0002813FF1F1C5F00009413FF1F10B509B1B6
:1042F00040F080000E4A1378984217D00D4C246885
:10430000E40412D503F07F03082B02D10A4B0024EA
:104310001C60002900F07F030CBF44216021082BA2
:1043200003D1054B41F440711960107010BD00BFFE
:10433000090AFF1F348004400CC004407047FFFF8F
:104340000D4A38B5146814F480524FF0000410D0B0
:104350003F280A4D0AD80A4A012152F830302B6012
:10436000FDF766FD2B681C70012038BD2C602046CF
:1043700038BD104638BD00BF348004402413FF1FF1
:104380001C5F00000B4B1B6813F4805310D00E28E9
:10439000094B09D1094A40F2023111605A7B42F0BF
:1043A00001025A73012070475A7B02F0FE025A73D1
:1043B000002070473480044000C0064004C0044020
:1043C000F8B51D4B1B68DA04064633D51B4B1B683A
:1043D0000BB101221A701A4B1C780134282C1F468D
:1043E00028BF0024174D2B78A34218D1FDF794FC69
:1043F00040280FDC144A13791B06F3D52B78134998
:104400000133282B28BF0023C95CDBB2C9B2D171AC
:104410002B70E7E7FF28E5DDFEF7C6FBE2E70B4B75
:10442000F6B21E550A4B01221A70074BE4B2AC22B9
:104430003C70DA70F8BD00BF348004409413FF1F55
:104440009813FF1F9313FF1F00C006402A13FF1F7E
:104450002813FF1F38B504464518AC4204D014F8A1
:10446000010BFFF7ADFFF8E738BDFFFF08B5034BC1
:104470001B7813B1FEF798FBF9E708BD2813FF1F5F
:10448000064A074B1B781078DBB2C0B283422CBFC0
:10449000273000F1FF30C01A704700BF9313FF1F91
:1044A0009813FF1F054B1878054B1B78C0B2DBB281
:1044B000984238BF4030C01A704700BF9213FF1FA8
:1044C0002913FF1F10B5104B10491A780B78D2B280
:1044D000DBB29A4214D00133402B28BF00230C4892
:1044E000DCB2C05C0C700B490968C0B251B19A4291
:1044F00038BF4032D31A1A2B04DC00230B7010BDD6
:104500004FF0FF3010BD00BF9213FF1F2913FF1F94
:104510005213FF1F2413FF1F084B1A78084B1B78F8
:10452000DBB29A4207D00133402B28BF0023054A53
:10453000D05CC0B270474FF0FF3070479213FF1F3E
:104540002913FF1F5213FF1F054B1A78054BD2B2D8
:104550001A70054B1B680BB100221A70704700BF20
:104560002913FF1F9213FF1F2413FF1F10B5294BA0
:104570001A79920620D5284AD87913782749013329
:10458000402B097828BF00238B42C0B203D02449B6
:10459000C854D9B21170234A116869B1224A1278FD
:1045A000D2B2934236BFC2F14002C2EB03039B1862
:1045B000272BC4BF01230B70164AD178C9B20C0651
:1045C00016D51379180613D5184B17481C7803789D
:1045D000DBB29C4202D16C23D37009E00133282B5B
:1045E00028BF0023124CE45CDBB2E4B2D471037048
:1045F0004B060ED5074B1A7912F0400F194608D01A
:104600000C4B00221A700C4B1B6803B11A702C2340
:10461000CB7010BD00C006409213FF1F2913FF1F6F
:104620005213FF1F2413FF1F9313FF1F9813FF1F25
:104630002A13FF1F2813FF1F9413FF1F214B1A6813
:1046400042F400521A60204A002313701F4A13706C
:104650001F4A13701F4A13701F4A13701F4B1B7899
:104660001F2B05D03F2B07D140F213321C4B02E029
:104670001C4B40F213321A601B4B1B78202B05D0C9
:104680003E2B07D14FF45172184B02E0184B4FF4F8
:1046900051721A60174BC0F344321A70C0F34712BC
:1046A0005A7000F01F00002298729A701A742C221F
:1046B000DA70114B40226FF448711A700B442022BB
:1046C0001A607047348004400A14FF1FA113FF1FB3
:1046D0001014FF1F0B14FF1FA013FF1F0A0AFF1F58
:1046E00014D0044028A004400B0AFF1F10D004403F
:1046F0002CA0044000D0064025E400E0194A93783D
:1047000000F0030103F0EC030B43410748BF43F003
:104710001003937000F00F03042B124903D18B791F
:1047200043F040038B7152790E4B02F0EF02C10649
:1047300048BF42F010025A719A7910F0200F02F02F
:10474000EF02194618BF42F010028A71C205054BEC
:1047500006D55A781978D2B241F0200119705A70F2
:10476000704700BF00D0064008B51C4B1B689B0477
:1047700000D408BD1A4B1A7802F0FF0312B1FEF7FD
:1047800013FAF7E7174A20211160174AD370174A26
:1047900012781F2A04D03F2A06D1154A136003E07D
:1047A000144B40F203121A60134B1B7803F07F0383
:1047B000202B04D03E2B06D10022104B02E0104BE0
:1047C00040F203121A600F4A002313700E4A13704E
:1047D0000E4B1B680BB101221A7008BD34800440D7
:1047E000A013FF1F84E100E000D006400A0AFF1F6B
:1047F00014D0044028A004400B0AFF1F10D004402E
:104800002CA004400A14FF1FA113FF1F9C13FF1FBD
:1048100038B50446094B1B7803F0FF05002BF9D18E
:1048200020460121FDF704FB20462946FDF7D2FA78
:10483000034B53F83420034B1A6038BDA013FF1FFD
:104840001C5F00000C14FF1F10B509B140F0800080
:10485000144A13789842144622D0134A12689204DC
:104860001DD503F07F03202B04D03E2B05D1002261
:104870000E4B01E00E4B00221A60002900F07F026F
:104880000CBF44236023202A05D03E2A07D143F4DD
:104890004073064A02E0064A43F4407313602070F6
:1048A00010BD00BF0B0AFF1F3480044010D004402D
:1048B0002CA004400F4A137898421AD00E49096878
:1048C000890415D51F2B04D03F2B05D100210B4B9C
:1048D00001E00B4B002119601F2805D03F2807D1AC
:1048E00040F21331054B02E0054B40F213311960E1
:1048F000107070470A0AFF1F3480044014D004402F
:1049000028A004400D4A38B5146814F400524FF042
:10491000000410D03F280A4D0AD80A4A012152F853
:1049200030302B60FDF784FA2B681C70012038BDF5
:104930002C60204638BD104638BD00BF348004408E
:104940009C13FF1F1C5F000000207047F8B51D4B33
:104950001B689A04064633D51B4B1B680BB101221A
:104960001A701A4B1C780134282C1F4628BF0024CB
:10497000174D2B78A34218D1FDF7CEF940280FDC54
:10498000144A13791B06F3D52B7813490133282BCE
:1049900028BF0023C95CDBB2C9B2D1712B70E7E735
:1049A000FF28E5DDFEF700F9E2E70B4BF6B21E55F6
:1049B0000A4B01221A70074BE4B2AC223C70DA7049
:1049C000F8BD00BF348004400C14FF1F1014FF1FFB
:1049D0000B14FF1F00D00640A213FF1FA013FF1FE0
:1049E00038B504464518AC4204D014F8010BFFF763
:1049F000ADFFF8E738BDFFFF08B5034B1B7813B1D7
:104A0000FEF7D2F8F9E708BDA013FF1F064A074BCF
:104A10001B781078DBB2C0B283422CBF273000F184
:104A2000FF30C01A704700BF0B14FF1F1014FF1F88
:104A3000054B1878054B1B78C0B2DBB2984238BFE3
:104A40004030C01A704700BF0A14FF1FA113FF1F98
:104A500010B5104B10491A780B78D2B2DBB29A42DB
:104A600014D00133402B28BF00230C48DCB2C05CBB
:104A70000C700B490968C0B251B19A4238BF40323C
:104A8000D31A1A2B04DC00230B7010BD4FF0FF303B
:104A900010BD00BF0A14FF1FA113FF1FCA13FF1F81
:104AA0009C13FF1F084B1A78084B1B78DBB29A4205
:104AB00007D00133402B28BF0023054AD05CC0B289
:104AC00070474FF0FF3070470A14FF1FA113FF1FFC
:104AD000CA13FF1F054B1A78054BD2B21A70054B4B
:104AE0001B680BB100221A70704700BFA113FF1F93
:104AF0000A14FF1F9C13FF1F10B5294B1A79920649
:104B000020D5284AD879137827490133402B0978D2
:104B100028BF00238B42C0B203D02449C854D9B265
:104B20001170234A116869B1224A1278D2B29342B5
:104B300036BFC2F14002C2EB03039B18272BC4BF50
:104B400001230B70164AD178C9B20C0616D5137919
:104B5000180613D5184B17481C780378DBB29C4213
:104B600002D16C23D37009E00133282B28BF002326
:104B7000124CE45CDBB2E4B2D47103704B060ED588
:104B8000074B1A7912F0400F194608D00C4B00223F
:104B90001A700C4B1B6803B11A702C23CB7010BD1C
:104BA00000D006400A14FF1FA113FF1FCA13FF1FE6
:104BB0009C13FF1F0B14FF1F1014FF1FA213FF1FD6
:104BC000A013FF1F0C14FF1F164B1A6842F48062DB
:104BD0001A60154A00231370144A1370144A137094
:104BE000144A1370144A1370144A40F213311160BE
:104BF0004FF4517142F8041C114AC0F34431117052
:104C0000C0F3471100F01F0051709072937013743D
:104C10002C23D3700B4B40221A70A3F23A33042298
:104C20001A607047288004408214FF1F1914FF1F68
:104C30008814FF1F8314FF1F1814FF1F64D0044043
:104C400000A00E4042E400E0194A937800F003010E
:104C500003F0EC030B43410748BF43F0100393708C
:104C600000F00F03042B124903D18B7943F040036A
:104C70008B7152790E4B02F0EF02C10648BF42F031
:104C800010025A719A7910F0200F02F0EF021946C3
:104C900018BF42F010028A71C205054B06D55A783A
:104CA0001978D2B241F0200119705A70704700BFD4
:104CB00000A00E4008B5114B1B685B0500D408BD71
:104CC0000F4B1A7802F0FF0312B1FDF76DFFF7E703
:104CD0000C4A042111600C4A0C49D37040F20312B3
:104CE0000A6041F8042C0A4A13700A4A13700A4BEE
:104CF0001B680BB101221A7008BD00BF2880044058
:104D00001814FF1F88E100E000A00E4064D00440AA
:104D10008214FF1F1914FF1F1414FF1F38B5044617
:104D2000094B1B7803F0FF05002BF9D12046012128
:104D3000FDF77EF820462946FDF74CF8034B53F863
:104D40003420034B1A6038BD1814FF1F1C5F00008D
:104D50008414FF1F10B509B140F080000E4A13788B
:104D6000984217D00D4C2468640512D503F07F03D8
:104D7000212B02D10A4B00241C60002900F07F0384
:104D80000CBF44216021212B03D1054B41F440711C
:104D90001960107010BD00BF0C0AFF1F288004406E
:104DA00060D004407047FFFF0D4A38B5146814F412
:104DB00080624FF0000410D03F280A4D0AD80A4AFA
:104DC000012152F830302B60FDF732F82B681C704F
:104DD000012038BD2C60204638BD104638BD00BFCC
:104DE000288004401414FF1F1C5F00000B4B1B683D
:104DF00013F4806310D01828094B09D1094A40F2F6
:104E0000023111605A7B42F001025A73012070474F
:104E10005A7B02F0FE025A7300207047288004403B
:104E200000A00E4068D00440F8B51D4B1B685A0521
:104E3000064633D51B4B1B680BB101221A701A4B67
:104E40001C780134282C1F4628BF0024174D2B78CE
:104E5000A34218D1FCF760FF40280FDC144A1379F5
:104E60001B06F3D52B7813490133282B28BF0023C9
:104E7000C95CDBB2C9B2D1712B70E7E7FF28E5DD71
:104E8000FDF792FEE2E70B4BF6B21E550A4B0122EC
:104E90001A70074BE4B2AC223C70DA70F8BD00BF68
:104EA000288004408414FF1F8814FF1F8314FF1FF1
:104EB00000A00E401A14FF1F1814FF1F38B5044637
:104EC0004518AC4204D014F8010BFFF7ADFFF8E72A
:104ED00038BDFFFF08B5034B1B7813B1FDF764FE27
:104EE000F9E708BD1814FF1F064A074B1B78107816
:104EF000DBB2C0B283422CBF273000F1FF30C01AB2
:104F0000704700BF8314FF1F8814FF1F054B1878DC
:104F1000054B1B78C0B2DBB2984238BF4030C01A94
:104F2000704700BF8214FF1F1914FF1F10B5104BEC
:104F300010491A780B78D2B2DBB29A4214D00133FE
:104F4000402B28BF00230C48DCB2C05C0C700B491E
:104F50000968C0B251B19A4238BF4032D31A1A2BF5
:104F600004DC00230B7010BD4FF0FF3010BD00BFFC
:104F70008214FF1F1914FF1F4214FF1F1414FF1F78
:104F8000084B1A78084B1B78DBB29A4207D00133E2
:104F9000402B28BF0023054AD05CC0B270474FF0B9
:104FA000FF3070478214FF1F1914FF1F4214FF1FA8
:104FB000054B1A78054BD2B21A70054B1B680BB122
:104FC00000221A70704700BF1914FF1F8214FF1FC0
:104FD0001414FF1F10B5294B1A79920620D5284AC0
:104FE000D879137827490133402B097828BF00234B
:104FF0008B42C0B203D02449C854D9B21170234A9D
:10500000116869B1224A1278D2B2934236BFC2F116
:105010004002C2EB03039B18272BC4BF01230B7074
:10502000164AD178C9B20C0616D51379180613D5CD
:10503000184B17481C780378DBB29C4202D16C23D2
:10504000D37009E00133282B28BF0023124CE45C05
:10505000DBB2E4B2D47103704B060ED5074B1A795C
:1050600012F0400F194608D00C4B00221A700C4B5E
:105070001B6803B11A702C23CB7010BD00A00E402A
:105080008214FF1F1914FF1F4214FF1F1414FF1F67
:105090008314FF1F8814FF1F1A14FF1F1814FF1F0B
:1050A0008414FF1F164B1A6842F400621A60154AF6
:1050B00000231370144A1370144A1370144A1370A7
:1050C000144A1370144A40F2133111604FF45171B5
:1050D0005160124AC0F344311170C0F3471100F01F
:1050E0001F0051709072937013742C23D3700C4B6B
:1050F00040221A70A3F54F7310221A60704700BF48
:1051000028800440FA14FF1F9114FF1F0015FF1F91
:10511000FB14FF1F9014FF1F20C0044000B00E407E
:1051200044E400E0194A937800F0030103F0EC0333
:105130000B43410748BF43F01003937000F00F0387
:10514000042B124903D18B7943F040038B715279C0
:105150000E4B02F0EF02C10648BF42F010025A7136
:105160009A7910F0200F02F0EF02194618BF42F0B2
:1051700010028A71C205054B06D55A781978D2B249
:1051800041F0200119705A70704700BF00B00E4006
:1051900008B5104B1B681B0500D408BD0E4B1A78D0
:1051A00002F0FF0312B1FDF7FFFCF7E70B4A1021F5
:1051B00011600B4A0B49D37040F203120A604A6037
:1051C000094A1370094A1370094B1B680BB101227D
:1051D0001A7008BD288004409014FF1F88E100E089
:1051E00000B00E4020C00440FA14FF1F9114FF1FAE
:1051F0008C14FF1F38B50446094B1B7803F0FF05DC
:10520000002BF9D120460121FCF712FE2046294649
:10521000FCF7E0FD034B53F83420034B1A6038BD14
:105220009014FF1F1C5F0000FC14FF1F10B509B194
:1052300040F080000E4A1378984217D00D4C246835
:10524000240512D503F07F03302B02D10A4B002432
:105250001C60002900F07F030CBF44216021302B2B
:1052600003D1054B41F440711960107010BD00BFAF
:105270000D0AFF1F2880044024C004407047FFFF30
:105280000D4A38B5146814F400624FF0000410D0D1
:105290003F280A4D0AD80A4A012152F830302B60C3
:1052A000FCF7C6FD2B681C70012038BD2C60204621
:1052B00038BD104638BD00BF288004408C14FF1F45
:1052C0001C5F00000B4B1B6813F4006310D03828E0
:1052D000094B09D1094A40F2023111605A7B42F070
:1052E00001025A73012070475A7B02F0FE025A7382
:1052F000002070472880044000B00E4028D00440B1
:10530000F8B51D4B1B681A05064633D51B4B1B68A9
:105310000BB101221A701A4B1C780134282C1F463D
:1053200028BF0024174D2B78A34218D1FCF7F4FCBA
:1053300040280FDC144A13791B06F3D52B78134948
:105340000133282B28BF0023C95CDBB2C9B2D1715D
:105350002B70E7E7FF28E5DDFDF726FCE2E70B4BC6
:10536000F6B21E550A4B01221A70074BE4B2AC226A
:105370003C70DA70F8BD00BF28800440FC14FF1FA9
:105380000015FF1FFB14FF1F00B00E409214FF1FFB
:105390009014FF1F38B504464518AC4204D014F8E9
:1053A000010BFFF7ADFFF8E738BDFFFF08B5034B72
:1053B0001B7813B1FDF7F8FBF9E708BD9014FF1F48
:1053C000064A074B1B781078DBB2C0B283422CBF71
:1053D000273000F1FF30C01A704700BFFB14FF1FD9
:1053E0000015FF1F054B1878054B1B78C0B2DBB2C8
:1053F000984238BF4030C01A704700BFFA14FF1FF0
:105400009114FF1F10B5104B10491A780B78D2B2C7
:10541000DBB29A4214D00133402B28BF00230C4842
:10542000DCB2C05C0C700B490968C0B251B19A4241
:1054300038BF4032D31A1A2B04DC00230B7010BD86
:105440004FF0FF3010BD00BFFA14FF1F9114FF1F73
:10545000BA14FF1F8C14FF1F084B1A78084B1B78D7
:10546000DBB29A4207D00133402B28BF0023054A04
:10547000D05CC0B270474FF0FF307047FA14FF1F86
:105480009114FF1FBA14FF1F054B1A78054BD2B2B7
:105490001A70054B1B680BB100221A70704700BFD1
:1054A0009114FF1FFA14FF1F8C14FF1F10B5294B16
:1054B0001A79920620D5284AD879137827490133DA
:1054C000402B097828BF00238B42C0B203D0244967
:1054D000C854D9B21170234A116869B1224A1278AE
:1054E000D2B2934236BFC2F14002C2EB03039B1813
:1054F000272BC4BF01230B70164AD178C9B20C0602
:1055000016D51379180613D5184B17481C7803784D
:10551000DBB29C4202D16C23D37009E00133282B0B
:1055200028BF0023124CE45CDBB2E4B2D4710370F8
:105530004B060ED5074B1A7912F0400F194608D0CA
:105540000C4B00221A700C4B1B6803B11A702C23F1
:10555000CB7010BD00B00E40FA14FF1F9114FF1F56
:10556000BA14FF1F8C14FF1FFB14FF1F0015FF1F31
:105570009214FF1F9014FF1FFC14FF1F1FB572B67B
:10558000134B144970221A70134A116080221A704A
:105590001A781206FCD5114B186862B6104B984267
:1055A00098BF0A2301AC98BF584321460A2200F055
:1055B0001BF80023E15C0B4A29B102EB43000133E5
:1055C0000A2B4180F6D101335B00137004B010BD8B
:1055D0000000024000000741040002400C000240AD
:1055E0007F969800960AFF1F10B50023B0FBF2F4D7
:1055F00002FB1400092894BF30303730C0B2C854C1
:1056000020460CB10133F1E7CA18547022469A4281
:1056100006DA885CCC5C8C54C8540132013BF6E756
:10562000084610BD90F8392090F83800101A7047DD
:1056300090F8383090F839209A4205D95A1C80F8F1
:1056400038201844007E70474FF0FF30704790F8C4
:10565000383090F839209A4286BFC018007E4FF04B
:10566000FF3070477047B0F85E302BB190F85D3076
:10567000202B03D901230371002070475A1C80F8A6
:105680005D20184480F83B100120704738B504466F
:10569000B0F85E00154698B194F85D00C0F12103A2
:1056A0009A4202D9012222711D4620443B302A46EB
:1056B000FCF754FA94F85D302B4484F85D302846AA
:1056C00038BDFFFF43691A685B6812681A420ED042
:1056D000074B9942036901D82C2204E0054A914204
:1056E00094BF1C2212225A70036904229A717047D7
:1056F0007F1A06003F420F0038B54169002380F849
:10570000383080F8393080F85C3080F85D3080F8CF
:105710005E3080F85F300A6849681568436629433F
:105720008366116002699370436990F86110134AAF
:10573000194404460D7A497B02EBC50501F00701C7
:105740006D68090241F06401296090F862100B4411
:10575000997CDB7D02EBC10203F007035268084924
:105760001B0243F064031360FFF7ACFF23692022A0
:105770005A71236980229A7038BD00BF1C5F0000F7
:10578000A086010038B50269D578EDB215F0100F8A
:10579000044605F0400303D103F0FF012BB92AE0D2
:1057A0001021D170002BF7D138BD05F0040505F0AC
:1057B000FF02374BCDB100221A70636E84F85D2072
:1057C00003B1984794F85D3023B9012284F85D2035
:1057D00084F83B302369D0229A70236994F83B20E7
:1057E0001A71012384F85C304DE00121197084F8AE
:1057F000392023692DE023699A79D2B202F0600042
:10580000602809D102F0DF029A71A36E23B184F8F7
:10581000381094F83900984723699A7802F01002FA
:1058200002F0FF01D2B115F0010512D194F85C200D
:1058300094F85D10914207D9511C224484F85C1001
:1058400092F83B201A7100E01D712369D0229A70F2
:1058500019E0C0229A7023691B7914E084F8601063
:105860009A7942F020029A7123691A7994F83930B2
:105870001F2BD2B207D80649097821B1591C2344FD
:1058800084F839101A7623690222DA7038BD00BF15
:10589000DC15FF1F2DE9F04103691222DA7002695D
:1058A000937813F0200F86B03A4B01D0B42414E063
:1058B0001C680094009ED47804F0200404F0FF05D6
:1058C00044B11C680194019CA41B0F2CF3D9002344
:1058D000937038E080F85F50B02494701A68029298
:1058E000029E0269D47804F0200404F0FF050CB194
:1058F000002407E01C680394039CA41B042CF1D92A
:10590000957020E090F85D50E2B2954236D9861845
:10591000056996F83B602E711D680495DDF81080CE
:105920000569EE78F6B206F0020707F0FF0C7FB9C2
:10593000B6060DD51E680596059EC8EB0606052E13
:10594000EFD985F802C0036980229A7004201EE016
:105950000226EE700669F578EDB2EF0601D4AF06C7
:1059600003D48023B370042309E0ED0704F101049C
:10597000C8D5002A0CBF0223032301E0002311B184
:10598000026980219170002280F85E20184606B0DE
:10599000BDE8F081A810FF1F0148FFF7F3BE00BF6C
:1059A000E015FF1F0148FFF7EDBE00BF0415FF1F04
:1059B0000148FFF7E7BE00BF7015FF1F164A1749E1
:1059C00010B5174C146100234FF47A70154C116018
:1059D000546113719060137382F8613082F8623001
:1059E000114A124C1461124C1160137190601373C0
:1059F000546182F8613082F862300E4A11600E49BB
:105A0000116113710D49137382F8613082F86230AD
:105A10009060516110BD00BFE015FF1F4864000099
:105A200000600640E06300000415FF1F00700640A0
:105A3000006400007015FF1F00600E40206400002D
:105A400030B5054A0C680568B4FBF2F31D4402FB4F
:105A5000134305600B6030BD00CA9A3B014B1868C8
:105A6000704700BF0C0BFF1F70B50E4B0E4DED1AAB
:105A7000AD1000241E46AC4204D056F824209047B6
:105A80000134F8E700F0EEFC084D094BED1AAD10BB
:105A900000241E46AC4204D056F82420904701341E
:105AA000F8E770BD70640000706400009C64000042
:105AB00070640000024B0146186800F047B800BF50
:105AC0000C0BFF1F30B500293CD051F8042C0B1FE4
:105AD0001D49002AB8BF9B180A680C4612B95A60C3
